{
  "_format": "hh-sol-artifact-1",
  "contractName": "BlazCirculatingSupply",
  "sourceName": "contracts/presale/BlazCirculatingSupply.sol",
  "abi": [
    {
      "inputs": [
        {
          "internalType": "address",
          "name": "_owner",
          "type": "address"
        }
      ],
      "stateMutability": "nonpayable",
      "type": "constructor"
    },
    {
      "inputs": [],
      "name": "BLAZ",
      "outputs": [
        {
          "internalType": "address",
          "name": "",
          "type": "address"
        }
      ],
      "stateMutability": "view",
      "type": "function"
    },
    {
      "inputs": [],
      "name": "BLAZCirculatingSupply",
      "outputs": [
        {
          "internalType": "uint256",
          "name": "",
          "type": "uint256"
        }
      ],
      "stateMutability": "view",
      "type": "function"
    },
    {
      "inputs": [],
      "name": "getNonCirculatingBLAZ",
      "outputs": [
        {
          "internalType": "uint256",
          "name": "",
          "type": "uint256"
        }
      ],
      "stateMutability": "view",
      "type": "function"
    },
    {
      "inputs": [
        {
          "internalType": "address",
          "name": "_blaz",
          "type": "address"
        }
      ],
      "name": "initialize",
      "outputs": [
        {
          "internalType": "bool",
          "name": "",
          "type": "bool"
        }
      ],
      "stateMutability": "nonpayable",
      "type": "function"
    },
    {
      "inputs": [],
      "name": "isInitialized",
      "outputs": [
        {
          "internalType": "bool",
          "name": "",
          "type": "bool"
        }
      ],
      "stateMutability": "view",
      "type": "function"
    },
    {
      "inputs": [
        {
          "internalType": "uint256",
          "name": "",
          "type": "uint256"
        }
      ],
      "name": "nonCirculatingBLAZAddresses",
      "outputs": [
        {
          "internalType": "address",
          "name": "",
          "type": "address"
        }
      ],
      "stateMutability": "view",
      "type": "function"
    },
    {
      "inputs": [],
      "name": "owner",
      "outputs": [
        {
          "internalType": "address",
          "name": "",
          "type": "address"
        }
      ],
      "stateMutability": "view",
      "type": "function"
    },
    {
      "inputs": [
        {
          "internalType": "address[]",
          "name": "_nonCirculatingAddresses",
          "type": "address[]"
        }
      ],
      "name": "setNonCirculatingBLAZAddresses",
      "outputs": [
        {
          "internalType": "bool",
          "name": "",
          "type": "bool"
        }
      ],
      "stateMutability": "nonpayable",
      "type": "function"
    },
    {
      "inputs": [
        {
          "internalType": "address",
          "name": "_owner",
          "type": "address"
        }
      ],
      "name": "transferOwnership",
      "outputs": [
        {
          "internalType": "bool",
          "name": "",
          "type": "bool"
        }
      ],
      "stateMutability": "nonpayable",
      "type": "function"
    }
  ],
  "bytecode": "0x608060405234801561001057600080fd5b506040516107bf3803806107bf8339818101604052602081101561003357600080fd5b5051600180546001600160a01b0319166001600160a01b0390921691909117905561075c806100636000396000f3fe608060405234801561001057600080fd5b50600436106100a35760003560e01c80637ea2bca411610076578063c4d66de81161005b578063c4d66de814610197578063dba1e514146101bd578063f2fde38b146101c5576100a3565b80637ea2bca41461011f5780638da5cb5b1461018f576100a3565b806329aa0faf146100a8578063392e53cd146100cc5780633964ac27146100e85780637ca697a014610102575b600080fd5b6100b06101eb565b604080516001600160a01b039092168252519081900360200190f35b6100d46101ff565b604080519115158252519081900360200190f35b6100f0610208565b60408051918252519081900360200190f35b6100b06004803603602081101561011857600080fd5b50356102a2565b6100d46004803603602081101561013557600080fd5b81019060208101813564010000000081111561015057600080fd5b82018360208201111561016257600080fd5b8035906020019184602083028401116401000000008311171561018457600080fd5b5090925090506102cc565b6100b0610344565b6100d4600480360360208110156101ad57600080fd5b50356001600160a01b0316610353565b6100f0610411565b6100d4600480360360208110156101db57600080fd5b50356001600160a01b03166104fe565b60005461010090046001600160a01b031681565b60005460ff1681565b600080600060019054906101000a90046001600160a01b03166001600160a01b03166318160ddd6040518163ffffffff1660e01b815260040160206040518083038186803b15801561025957600080fd5b505afa15801561026d573d6000803e3d6000fd5b505050506040513d602081101561028357600080fd5b50519050600061029b610294610411565b8390610590565b9250505090565b600281815481106102b257600080fd5b6000918252602090912001546001600160a01b0316905081565b6001546000906001600160a01b0316331461032e576040805162461bcd60e51b815260206004820152601360248201527f53656e646572206973206e6f74206f776e657200000000000000000000000000604482015290519081900360640190fd5b61033a600284846106ca565b5060019392505050565b6001546001600160a01b031681565b6001546000906001600160a01b031633146103b5576040805162461bcd60e51b815260206004820152601360248201527f63616c6c6572206973206e6f74206f776e657200000000000000000000000000604482015290519081900360640190fd5b60005460ff16156103c557600080fd5b506000805460ff196001600160a01b038416610100027fffffffffffffffffffffff0000000000000000000000000000000000000000ff90921691909117166001908117909155919050565b60008060005b6002548110156104f857600054600280546104e49261010090046001600160a01b0316916370a08231918590811061044b57fe5b60009182526020918290200154604080517fffffffff0000000000000000000000000000000000000000000000000000000060e086901b1681526001600160a01b0390921660048301525160248083019392829003018186803b1580156104b157600080fd5b505afa1580156104c5573d6000803e3d6000fd5b505050506040513d60208110156104db57600080fd5b505183906105d9565b91506104f18160016105d9565b9050610417565b50905090565b6001546000906001600160a01b03163314610560576040805162461bcd60e51b815260206004820152601360248201527f53656e646572206973206e6f74206f776e657200000000000000000000000000604482015290519081900360640190fd5b50600180546001600160a01b03831673ffffffffffffffffffffffffffffffffffffffff19909116178155919050565b60006105d283836040518060400160405280601e81526020017f536166654d6174683a207375627472616374696f6e206f766572666c6f770000815250610633565b9392505050565b6000828201838110156105d2576040805162461bcd60e51b815260206004820152601b60248201527f536166654d6174683a206164646974696f6e206f766572666c6f770000000000604482015290519081900360640190fd5b600081848411156106c25760405162461bcd60e51b81526004018080602001828103825283818151815260200191508051906020019080838360005b8381101561068757818101518382015260200161066f565b50505050905090810190601f1680156106b45780820380516001836020036101000a031916815260200191505b509250505060405180910390fd5b505050900390565b82805482825590600052602060002090810192821561072a579160200282015b8281111561072a57815473ffffffffffffffffffffffffffffffffffffffff19166001600160a01b038435161782556020909201916001909101906106ea565b5061073692915061073a565b5090565b5b80821115610736576000815560010161073b56fea164736f6c6343000705000a",
  "linkReferences": {},
  "deployedLinkReferences": {}
}