{
  "_format": "hh-sol-artifact-1",
  "contractName": "BlazingBondingCalculator",
  "sourceName": "contracts/BlazingBondingCalculator.sol",
  "abi": [
    {
      "inputs": [
        {
          "internalType": "address",
          "name": "_BLAZ",
          "type": "address"
        }
      ],
      "stateMutability": "nonpayable",
      "type": "constructor"
    },
    {
      "inputs": [],
      "name": "BLAZ",
      "outputs": [
        {
          "internalType": "address",
          "name": "",
          "type": "address"
        }
      ],
      "stateMutability": "view",
      "type": "function"
    },
    {
      "inputs": [
        {
          "internalType": "address",
          "name": "_pair",
          "type": "address"
        }
      ],
      "name": "getKValue",
      "outputs": [
        {
          "internalType": "uint256",
          "name": "k_",
          "type": "uint256"
        }
      ],
      "stateMutability": "view",
      "type": "function"
    },
    {
      "inputs": [
        {
          "internalType": "address",
          "name": "_pair",
          "type": "address"
        }
      ],
      "name": "getTotalValue",
      "outputs": [
        {
          "internalType": "uint256",
          "name": "_value",
          "type": "uint256"
        }
      ],
      "stateMutability": "view",
      "type": "function"
    },
    {
      "inputs": [
        {
          "internalType": "address",
          "name": "_pair",
          "type": "address"
        }
      ],
      "name": "markdown",
      "outputs": [
        {
          "internalType": "uint256",
          "name": "",
          "type": "uint256"
        }
      ],
      "stateMutability": "view",
      "type": "function"
    },
    {
      "inputs": [
        {
          "internalType": "address",
          "name": "_pair",
          "type": "address"
        },
        {
          "internalType": "uint256",
          "name": "amount_",
          "type": "uint256"
        }
      ],
      "name": "valuation",
      "outputs": [
        {
          "internalType": "uint256",
          "name": "_value",
          "type": "uint256"
        }
      ],
      "stateMutability": "view",
      "type": "function"
    }
  ],
  "bytecode": "0x60a060405234801561001057600080fd5b50604051610d9a380380610d9a8339818101604052602081101561003357600080fd5b50516001600160a01b03811661004857600080fd5b606081901b6001600160601b0319166080526001600160a01b0316610d1661008460003980610142528061020c52806102aa5250610d166000f3fe608060405234801561001057600080fd5b50600436106100675760003560e01c80634249719f116100505780634249719f146100c8578063490084ef146100f4578063686375491461011a57610067565b806329aa0faf1461006c57806332da80a314610090575b600080fd5b610074610140565b604080516001600160a01b039092168252519081900360200190f35b6100b6600480360360208110156100a657600080fd5b50356001600160a01b0316610164565b60408051918252519081900360200190f35b6100b6600480360360408110156100de57600080fd5b506001600160a01b03813516906020013561034e565b6100b66004803603602081101561010a57600080fd5b50356001600160a01b03166103f6565b6100b66004803603602081101561013057600080fd5b50356001600160a01b0316610717565b7f000000000000000000000000000000000000000000000000000000000000000081565b6000806000836001600160a01b0316630902f1ac6040518163ffffffff1660e01b815260040160606040518083038186803b1580156101a257600080fd5b505afa1580156101b6573d6000803e3d6000fd5b505050506040513d60608110156101cc57600080fd5b50805160209182015160408051630dfe168160e01b815290516dffffffffffffffffffffffffffff93841696509290911693506000926001600160a01b037f000000000000000000000000000000000000000000000000000000000000000081169390891692630dfe1681926004808301939192829003018186803b15801561025457600080fd5b505afa158015610268573d6000803e3d6000fd5b505050506040513d602081101561027e57600080fd5b50516001600160a01b03161415610296575080610299565b50815b6103436102a586610717565b61033d7f00000000000000000000000000000000000000000000000000000000000000006001600160a01b031663313ce5676040518163ffffffff1660e01b815260040160206040518083038186803b15801561030157600080fd5b505afa158015610315573d6000803e3d6000fd5b505050506040513d602081101561032b57600080fd5b5051849060ff16600a0a600202610735565b90610795565b93505050505b919050565b60008061035a84610717565b90506000846001600160a01b03166318160ddd6040518163ffffffff1660e01b815260040160206040518083038186803b15801561039757600080fd5b505afa1580156103ab573d6000803e3d6000fd5b505050506040513d60208110156103c157600080fd5b505190506103ed670de0b6b3a764000061033d6103e66103e188866107d7565b610959565b8590610735565b95945050505050565b600080826001600160a01b0316630dfe16816040518163ffffffff1660e01b815260040160206040518083038186803b15801561043257600080fd5b505afa158015610446573d6000803e3d6000fd5b505050506040513d602081101561045c57600080fd5b50516040805163313ce56760e01b815290516001600160a01b039092169163313ce56791600480820192602092909190829003018186803b1580156104a057600080fd5b505afa1580156104b4573d6000803e3d6000fd5b505050506040513d60208110156104ca57600080fd5b50516040805163d21220a760e01b8152905160ff90921692506000916001600160a01b0386169163d21220a7916004808301926020929190829003018186803b15801561051657600080fd5b505afa15801561052a573d6000803e3d6000fd5b505050506040513d602081101561054057600080fd5b50516040805163313ce56760e01b815290516001600160a01b039092169163313ce56791600480820192602092909190829003018186803b15801561058457600080fd5b505afa158015610598573d6000803e3d6000fd5b505050506040513d60208110156105ae57600080fd5b505160ff16905060006105c18383610971565b90506000856001600160a01b031663313ce5676040518163ffffffff1660e01b815260040160206040518083038186803b1580156105fe57600080fd5b505afa158015610612573d6000803e3d6000fd5b505050506040513d602081101561062857600080fd5b505160408051630240bc6b60e21b8152905160ff909216925060009182916001600160a01b038a1691630902f1ac91600480820192606092909190829003018186803b15801561067757600080fd5b505afa15801561068b573d6000803e3d6000fd5b505050506040513d60608110156106a157600080fd5b5080516020909101516dffffffffffffffffffffffffffff91821693501690508284106106e9576106e26106d585856109cb565b600a0a61033d8484610735565b965061070c565b6107096106f684866109cb565b600a0a6107038484610735565b90610735565b96505b505050505050919050565b600061072f600261070361072a856103f6565b610a0d565b92915050565b6000826107445750600061072f565b8282028284828161075157fe5b041461078e5760405162461bcd60e51b8152600401808060200182810382526021815260200180610ce96021913960400191505060405180910390fd5b9392505050565b600061078e83836040518060400160405280601a81526020017f536166654d6174683a206469766973696f6e206279207a65726f000000000000815250610a77565b6107df610cb0565b6000821161081e5760405162461bcd60e51b8152600401808060200182810382526026815260200180610cc36026913960400191505060405180910390fd5b82610838575060408051602081019091526000815261072f565b71ffffffffffffffffffffffffffffffffffff83116108df57600082607085901b8161086057fe5b0490506001600160e01b038111156108bf576040805162461bcd60e51b815260206004820152601e60248201527f4669786564506f696e743a3a6672616374696f6e3a206f766572666c6f770000604482015290519081900360640190fd5b6040518060200160405280826001600160e01b031681525091505061072f565b60006108fb846e01000000000000000000000000000085610b19565b90506001600160e01b038111156108bf576040805162461bcd60e51b815260206004820152601e60248201527f4669786564506f696e743a3a6672616374696f6e3a206f766572666c6f770000604482015290519081900360640190fd5b516612725dd1d243ab6001600160e01b039091160490565b60008282018381101561078e576040805162461bcd60e51b815260206004820152601b60248201527f536166654d6174683a206164646974696f6e206f766572666c6f770000000000604482015290519081900360640190fd5b600061078e83836040518060400160405280601e81526020017f536166654d6174683a207375627472616374696f6e206f766572666c6f770000815250610bb9565b60006003821115610a695750806000610a31610a2a836002610795565b6001610971565b90505b81811015610a6357809150610a5c610a55610a4f8584610795565b83610971565b6002610795565b9050610a34565b50610349565b811561034957506001919050565b60008183610b035760405162461bcd60e51b81526004018080602001828103825283818151815260200191508051906020019080838360005b83811015610ac8578181015183820152602001610ab0565b50505050905090810190601f168015610af55780820380516001836020036101000a031916815260200191505b509250505060405180910390fd5b506000838581610b0f57fe5b0495945050505050565b6000806000610b288686610c13565b9150915060008480610b3657fe5b868809905082811115610b4a576001820391505b8083039250848210610ba3576040805162461bcd60e51b815260206004820152601a60248201527f46756c6c4d6174683a3a6d756c4469763a206f766572666c6f77000000000000604482015290519081900360640190fd5b610bae838387610c40565b979650505050505050565b60008184841115610c0b5760405162461bcd60e51b8152602060048201818152835160248401528351909283926044909101919085019080838360008315610ac8578181015183820152602001610ab0565b505050900390565b6000808060001984860990508385029250828103915082811015610c38576001820391505b509250929050565b60008181038216808381610c5057fe5b049250808581610c5c57fe5b049450808160000381610c6b57fe5b60028581038087028203028087028203028087028203028087028203028087028203028087028203029586029003909402930460010193909302939093010292915050565b6040805160208101909152600081529056fe4669786564506f696e743a3a6672616374696f6e3a206469766973696f6e206279207a65726f536166654d6174683a206d756c7469706c69636174696f6e206f766572666c6f77a164736f6c6343000705000a",
  "linkReferences": {},
  "deployedLinkReferences": {}
}